{
  "contractName": "GinPledge",
  "abi": [
    {
      "inputs": [
        {
          "internalType": "address",
          "name": "FilTokenAddress",
          "type": "address"
        },
        {
          "internalType": "address",
          "name": "FiscTokenAddress",
          "type": "address"
        },
        {
          "internalType": "address",
          "name": "paramProfitor",
          "type": "address"
        },
        {
          "internalType": "uint256",
          "name": "maxPledgeAmount",
          "type": "uint256"
        },
        {
          "internalType": "uint256",
          "name": "minAmount",
          "type": "uint256"
        },
        {
          "internalType": "uint256",
          "name": "maxMiningAmount",
          "type": "uint256"
        },
        {
          "internalType": "uint256",
          "name": "maxPreMiningAmount",
          "type": "uint256"
        },
        {
          "internalType": "uint256",
          "name": "startTime",
          "type": "uint256"
        },
        {
          "internalType": "uint256",
          "name": "endTime",
          "type": "uint256"
        }
      ],
      "payable": false,
      "stateMutability": "nonpayable",
      "type": "constructor"
    },
    {
      "constant": false,
      "inputs": [
        {
          "internalType": "uint256",
          "name": "FiscAmount",
          "type": "uint256"
        }
      ],
      "name": "pledgeToken",
      "outputs": [],
      "payable": false,
      "stateMutability": "nonpayable",
      "type": "function"
    },
    {
      "constant": false,
      "inputs": [],
      "name": "fiscApprove",
      "outputs": [
        {
          "internalType": "bool",
          "name": "",
          "type": "bool"
        }
      ],
      "payable": false,
      "stateMutability": "nonpayable",
      "type": "function"
    },
    {
      "constant": false,
      "inputs": [
        {
          "internalType": "uint256",
          "name": "FilAmount",
          "type": "uint256"
        }
      ],
      "name": "profit",
      "outputs": [],
      "payable": false,
      "stateMutability": "nonpayable",
      "type": "function"
    },
    {
      "constant": false,
      "inputs": [],
      "name": "takeProfit",
      "outputs": [],
      "payable": false,
      "stateMutability": "nonpayable",
      "type": "function"
    },
    {
      "constant": false,
      "inputs": [
        {
          "internalType": "uint256",
          "name": "amount",
          "type": "uint256"
        }
      ],
      "name": "takeToken",
      "outputs": [],
      "payable": false,
      "stateMutability": "nonpayable",
      "type": "function"
    },
    {
      "constant": false,
      "inputs": [],
      "name": "takeAllToken",
      "outputs": [],
      "payable": false,
      "stateMutability": "nonpayable",
      "type": "function"
    },
    {
      "constant": true,
      "inputs": [
        {
          "internalType": "address",
          "name": "tokenAddress",
          "type": "address"
        }
      ],
      "name": "getPledgeToken",
      "outputs": [
        {
          "internalType": "uint256",
          "name": "",
          "type": "uint256"
        }
      ],
      "payable": false,
      "stateMutability": "view",
      "type": "function"
    },
    {
      "constant": true,
      "inputs": [
        {
          "internalType": "address",
          "name": "tokenAddress",
          "type": "address"
        }
      ],
      "name": "getfilToken",
      "outputs": [
        {
          "internalType": "uint256",
          "name": "",
          "type": "uint256"
        }
      ],
      "payable": false,
      "stateMutability": "view",
      "type": "function"
    },
    {
      "constant": true,
      "inputs": [],
      "name": "getTotalPledge",
      "outputs": [
        {
          "internalType": "uint256",
          "name": "",
          "type": "uint256"
        }
      ],
      "payable": false,
      "stateMutability": "view",
      "type": "function"
    },
    {
      "constant": true,
      "inputs": [
        {
          "internalType": "address",
          "name": "tokenAddress",
          "type": "address"
        }
      ],
      "name": "getTakeProfitTime",
      "outputs": [
        {
          "internalType": "uint256",
          "name": "",
          "type": "uint256"
        }
      ],
      "payable": false,
      "stateMutability": "view",
      "type": "function"
    },
    {
      "constant": false,
      "inputs": [
        {
          "internalType": "bool",
          "name": "flag",
          "type": "bool"
        }
      ],
      "name": "changeIsDIS",
      "outputs": [],
      "payable": false,
      "stateMutability": "nonpayable",
      "type": "function"
    },
    {
      "constant": false,
      "inputs": [
        {
          "internalType": "address",
          "name": "paramOwner",
          "type": "address"
        }
      ],
      "name": "changeOwner",
      "outputs": [],
      "payable": false,
      "stateMutability": "nonpayable",
      "type": "function"
    },
    {
      "constant": false,
      "inputs": [
        {
          "internalType": "address",
          "name": "paramProfitor",
          "type": "address"
        }
      ],
      "name": "changeProfitor",
      "outputs": [],
      "payable": false,
      "stateMutability": "nonpayable",
      "type": "function"
    },
    {
      "constant": true,
      "inputs": [],
      "name": "getOwner",
      "outputs": [
        {
          "internalType": "address",
          "name": "",
          "type": "address"
        }
      ],
      "payable": false,
      "stateMutability": "view",
      "type": "function"
    },
    {
      "constant": true,
      "inputs": [],
      "name": "getProfitor",
      "outputs": [
        {
          "internalType": "address",
          "name": "",
          "type": "address"
        }
      ],
      "payable": false,
      "stateMutability": "view",
      "type": "function"
    },
    {
      "constant": true,
      "inputs": [],
      "name": "getsize",
      "outputs": [
        {
          "internalType": "uint256",
          "name": "",
          "type": "uint256"
        }
      ],
      "payable": false,
      "stateMutability": "view",
      "type": "function"
    },
    {
      "constant": true,
      "inputs": [],
      "name": "maxPledgeAmount",
      "outputs": [
        {
          "internalType": "uint256",
          "name": "",
          "type": "uint256"
        }
      ],
      "payable": false,
      "stateMutability": "view",
      "type": "function"
    },
    {
      "constant": true,
      "inputs": [],
      "name": "maxMiningAmount",
      "outputs": [
        {
          "internalType": "uint256",
          "name": "",
          "type": "uint256"
        }
      ],
      "payable": false,
      "stateMutability": "view",
      "type": "function"
    },
    {
      "constant": true,
      "inputs": [],
      "name": "leftMiningAmount",
      "outputs": [
        {
          "internalType": "uint256",
          "name": "",
          "type": "uint256"
        }
      ],
      "payable": false,
      "stateMutability": "view",
      "type": "function"
    },
    {
      "constant": true,
      "inputs": [],
      "name": "minAmount",
      "outputs": [
        {
          "internalType": "uint256",
          "name": "",
          "type": "uint256"
        }
      ],
      "payable": false,
      "stateMutability": "view",
      "type": "function"
    },
    {
      "constant": true,
      "inputs": [],
      "name": "maxPreMiningAmount",
      "outputs": [
        {
          "internalType": "uint256",
          "name": "",
          "type": "uint256"
        }
      ],
      "payable": false,
      "stateMutability": "view",
      "type": "function"
    },
    {
      "constant": true,
      "inputs": [],
      "name": "startTime",
      "outputs": [
        {
          "internalType": "uint256",
          "name": "",
          "type": "uint256"
        }
      ],
      "payable": false,
      "stateMutability": "view",
      "type": "function"
    },
    {
      "constant": true,
      "inputs": [],
      "name": "endTime",
      "outputs": [
        {
          "internalType": "uint256",
          "name": "",
          "type": "uint256"
        }
      ],
      "payable": false,
      "stateMutability": "view",
      "type": "function"
    },
    {
      "constant": true,
      "inputs": [],
      "name": "nowTime",
      "outputs": [
        {
          "internalType": "uint256",
          "name": "",
          "type": "uint256"
        }
      ],
      "payable": false,
      "stateMutability": "view",
      "type": "function"
    },
    {
      "constant": true,
      "inputs": [],
      "name": "isDIS",
      "outputs": [
        {
          "internalType": "bool",
          "name": "",
          "type": "bool"
        }
      ],
      "payable": false,
      "stateMutability": "view",
      "type": "function"
    }
  ],
  "bytecode": "0x608060405260018060146101000a81548160ff02191690831515021790555034801561002a57600080fd5b50604051612c8a380380612c8a833981810160405261012081101561004e57600080fd5b8101908080519060200190929190805190602001909291908051906020019092919080519060200190929190805190602001909291908051906020019092919080519060200190929190805190602001909291908051906020019092919050505088600460006101000a81548173ffffffffffffffffffffffffffffffffffffffff021916908373ffffffffffffffffffffffffffffffffffffffff16021790555087600560006101000a81548173ffffffffffffffffffffffffffffffffffffffff021916908373ffffffffffffffffffffffffffffffffffffffff160217905550336000806101000a81548173ffffffffffffffffffffffffffffffffffffffff021916908373ffffffffffffffffffffffffffffffffffffffff16021790555086600160006101000a81548173ffffffffffffffffffffffffffffffffffffffff021916908373ffffffffffffffffffffffffffffffffffffffff1602179055508560088190555084600b819055508360098190555082600d8190555081600e8190555080600f8190555083600a81905550505050505050505050612a8f806101fb6000396000f3fe608060405234801561001057600080fd5b50600436106101735760003560e01c806366c2b0cd116100de578063a6f9dae111610097578063b9e0649b11610071578063b9e0649b146104e6578063cbb76f1914610516578063e869928114610538578063e99ddcd51461058257610173565b8063a6f9dae11461046a578063b93a74b1146104ae578063b9c7f93b146104b857610173565b806366c2b0cd1461039e57806370c10578146103bc57806378e97925146103c6578063820dc01e146103e4578063893d20e8146104025780639b2cb5d81461044c57610173565b806337b162a11161013057806337b162a1146102405780635689dfcb1461029857806356ad18c1146102f057806359df91191461031e5780635a37cb16146103625780635f7e75d21461038057610173565b80631241ee7d1461017857806313b1dc42146101a65780632ae86866146101c45780633197cbb6146101e2578063335f1b3714610200578063338935691461021e575b600080fd5b6101a46004803603602081101561018e57600080fd5b81019080803590602001909291905050506105da565b005b6101ae610a62565b6040518082815260200191505060405180910390f35b6101cc610a6c565b6040518082815260200191505060405180910390f35b6101ea610a76565b6040518082815260200191505060405180910390f35b610208610a80565b6040518082815260200191505060405180910390f35b610226610a88565b604051808215151515815260200191505060405180910390f35b6102826004803603602081101561025657600080fd5b81019080803573ffffffffffffffffffffffffffffffffffffffff169060200190929190505050610a9f565b6040518082815260200191505060405180910390f35b6102da600480360360208110156102ae57600080fd5b81019080803573ffffffffffffffffffffffffffffffffffffffff169060200190929190505050610be6565b6040518082815260200191505060405180910390f35b61031c6004803603602081101561030657600080fd5b8101908080359060200190929190505050610d2d565b005b6103606004803603602081101561033457600080fd5b81019080803573ffffffffffffffffffffffffffffffffffffffff169060200190929190505050610fe3565b005b61036a611080565b6040518082815260200191505060405180910390f35b61038861108a565b6040518082815260200191505060405180910390f35b6103a6611094565b6040518082815260200191505060405180910390f35b6103c461113f565b005b6103ce61146c565b6040518082815260200191505060405180910390f35b6103ec611476565b6040518082815260200191505060405180910390f35b61040a611480565b604051808273ffffffffffffffffffffffffffffffffffffffff1673ffffffffffffffffffffffffffffffffffffffff16815260200191505060405180910390f35b6104546114a9565b6040518082815260200191505060405180910390f35b6104ac6004803603602081101561048057600080fd5b81019080803573ffffffffffffffffffffffffffffffffffffffff1690602001909291905050506114b3565b005b6104b6611589565b005b6104e4600480360360208110156104ce57600080fd5b81019080803590602001909291905050506118be565b005b610514600480360360208110156104fc57600080fd5b81019080803515159060200190929190505050611e56565b005b61051e611ecc565b604051808215151515815260200191505060405180910390f35b610540611f47565b604051808273ffffffffffffffffffffffffffffffffffffffff1673ffffffffffffffffffffffffffffffffffffffff16815260200191505060405180910390f35b6105c46004803603602081101561059857600080fd5b81019080803573ffffffffffffffffffffffffffffffffffffffff169060200190929190505050611f71565b6040518082815260200191505060405180910390f35b600160009054906101000a900473ffffffffffffffffffffffffffffffffffffffff1673ffffffffffffffffffffffffffffffffffffffff163373ffffffffffffffffffffffffffffffffffffffff161461063457600080fd5b6000600a54116106ac576040517f08c379a000000000000000000000000000000000000000000000000000000000815260040180806020018281038252600a8152602001807f6c65737320746f6b656e0000000000000000000000000000000000000000000081525060200191505060405180910390fd5b6000600c5411610724576040517f08c379a00000000000000000000000000000000000000000000000000000000081526004018080602001828103825260098152602001807f6e6f20706c65646765000000000000000000000000000000000000000000000081525060200191505060405180910390fd5b6000811161079a576040517f08c379a00000000000000000000000000000000000000000000000000000000081526004018080602001828103825260148152602001807f70726f666974416d6f756e74206973207a65726f00000000000000000000000081525060200191505060405180910390fd5b6000600460009054906101000a900473ffffffffffffffffffffffffffffffffffffffff1673ffffffffffffffffffffffffffffffffffffffff166370a08231336040518263ffffffff1660e01b8152600401808273ffffffffffffffffffffffffffffffffffffffff1673ffffffffffffffffffffffffffffffffffffffff16815260200191505060206040518083038186803b15801561083b57600080fd5b505afa15801561084f573d6000803e3d6000fd5b505050506040513d602081101561086557600080fd5b81019080805190602001909291905050509050818110156108d1576040517f08c379a0000000000000000000000000000000000000000000000000000000008152600401808060200182810382526022815260200180612a396022913960400191505060405180910390fd5b600082905060008090505b6006805490508110156109f25760011515600682815481106108fa57fe5b9060005260206000200160000160149054906101000a900460ff16151514156109e5576000600260006006848154811061093057fe5b9060005260206000200160000160009054906101000a900473ffffffffffffffffffffffffffffffffffffffff1673ffffffffffffffffffffffffffffffffffffffff1673ffffffffffffffffffffffffffffffffffffffff16815260200190815260200160002090506109db6109c8600c546109ba868560010154611fba90919063ffffffff16565b61204090919063ffffffff16565b826002015461208a90919063ffffffff16565b8160020181905550505b80806001019150506108dc565b50610a0881600a5461211290919063ffffffff16565b600a81905550610a5d333083600460009054906101000a900473ffffffffffffffffffffffffffffffffffffffff1673ffffffffffffffffffffffffffffffffffffffff1661215c909392919063ffffffff16565b505050565b6000600954905090565b6000600754905090565b6000600f54905090565b600042905090565b6000600160149054906101000a900460ff16905090565b60003273ffffffffffffffffffffffffffffffffffffffff163373ffffffffffffffffffffffffffffffffffffffff1614610b42576040517f08c379a000000000000000000000000000000000000000000000000000000000815260040180806020018281038252600b8152602001807f6e6f20636f6e747261637400000000000000000000000000000000000000000081525060200191505060405180910390fd5b610b4a61299e565b600260008473ffffffffffffffffffffffffffffffffffffffff1673ffffffffffffffffffffffffffffffffffffffff1681526020019081526020016000206040518060a00160405290816000820160009054906101000a900460ff1615151515815260200160018201548152602001600282015481526020016003820154815260200160048201548152505090508060400151915050919050565b60003273ffffffffffffffffffffffffffffffffffffffff163373ffffffffffffffffffffffffffffffffffffffff1614610c89576040517f08c379a000000000000000000000000000000000000000000000000000000000815260040180806020018281038252600b8152602001807f6e6f20636f6e747261637400000000000000000000000000000000000000000081525060200191505060405180910390fd5b610c9161299e565b600260008473ffffffffffffffffffffffffffffffffffffffff1673ffffffffffffffffffffffffffffffffffffffff1681526020019081526020016000206040518060a00160405290816000820160009054906101000a900460ff1615151515815260200160018201548152602001600282015481526020016003820154815260200160048201548152505090508060200151915050919050565b3273ffffffffffffffffffffffffffffffffffffffff163373ffffffffffffffffffffffffffffffffffffffff1614610dce576040517f08c379a000000000000000000000000000000000000000000000000000000000815260040180806020018281038252600b8152602001807f6e6f20636f6e747261637400000000000000000000000000000000000000000081525060200191505060405180910390fd5b6000600260003373ffffffffffffffffffffffffffffffffffffffff1673ffffffffffffffffffffffffffffffffffffffff16815260200190815260200160002090506000816001015411610e8b576040517f08c379a00000000000000000000000000000000000000000000000000000000081526004018080602001828103825260088152602001807f6e6f206f7264657200000000000000000000000000000000000000000000000081525060200191505060405180910390fd5b8060010154821115610f05576040517f08c379a00000000000000000000000000000000000000000000000000000000081526004018080602001828103825260198152602001807f74616b652066697363746f6b656e20697320746f6f206d61780000000000000081525060200191505060405180910390fd5b610f1a82600c5461211290919063ffffffff16565b600c819055508181600101541415610f72576000816001018190555060006006826004015481548110610f4957fe5b9060005260206000200160000160146101000a81548160ff021916908315150217905550610f92565b610f8982826001015461211290919063ffffffff16565b81600101819055505b610fdf3383600560009054906101000a900473ffffffffffffffffffffffffffffffffffffffff1673ffffffffffffffffffffffffffffffffffffffff1661236d9092919063ffffffff16565b5050565b6000809054906101000a900473ffffffffffffffffffffffffffffffffffffffff1673ffffffffffffffffffffffffffffffffffffffff163373ffffffffffffffffffffffffffffffffffffffff161461103c57600080fd5b80600160006101000a81548173ffffffffffffffffffffffffffffffffffffffff021916908373ffffffffffffffffffffffffffffffffffffffff16021790555050565b6000600d54905090565b6000600a54905090565b60003273ffffffffffffffffffffffffffffffffffffffff163373ffffffffffffffffffffffffffffffffffffffff1614611137576040517f08c379a000000000000000000000000000000000000000000000000000000000815260040180806020018281038252600b8152602001807f6e6f20636f6e747261637400000000000000000000000000000000000000000081525060200191505060405180910390fd5b600c54905090565b3273ffffffffffffffffffffffffffffffffffffffff163373ffffffffffffffffffffffffffffffffffffffff16146111e0576040517f08c379a000000000000000000000000000000000000000000000000000000000815260040180806020018281038252600b8152602001807f6e6f20636f6e747261637400000000000000000000000000000000000000000081525060200191505060405180910390fd5b6000600260003373ffffffffffffffffffffffffffffffffffffffff1673ffffffffffffffffffffffffffffffffffffffff1681526020019081526020016000206002015411611298576040517f08c379a00000000000000000000000000000000000000000000000000000000081526004018080602001828103825260148152602001807f66696c546f6b656e20697320746f6f206c65737300000000000000000000000081525060200191505060405180910390fd5b600042905060006112f1600360003373ffffffffffffffffffffffffffffffffffffffff1673ffffffffffffffffffffffffffffffffffffffff168152602001908152602001600020548361211290919063ffffffff16565b9050610384811161136a576040517f08c379a000000000000000000000000000000000000000000000000000000000815260040180806020018281038252601f8152602001807f74686973206f7065726174696f6e20697320746f6f206c6573732074696d650081525060200191505060405180910390fd5b6000600260003373ffffffffffffffffffffffffffffffffffffffff1673ffffffffffffffffffffffffffffffffffffffff16815260200190815260200160002090506000816002015490506113cd81836002015461211290919063ffffffff16565b826002018190555083600360003373ffffffffffffffffffffffffffffffffffffffff1673ffffffffffffffffffffffffffffffffffffffff168152602001908152602001600020819055506114663382600460009054906101000a900473ffffffffffffffffffffffffffffffffffffffff1673ffffffffffffffffffffffffffffffffffffffff1661236d9092919063ffffffff16565b50505050565b6000600e54905090565b6000600854905090565b60008060009054906101000a900473ffffffffffffffffffffffffffffffffffffffff16905090565b6000600b54905090565b6000809054906101000a900473ffffffffffffffffffffffffffffffffffffffff1673ffffffffffffffffffffffffffffffffffffffff163373ffffffffffffffffffffffffffffffffffffffff161461150c57600080fd5b600073ffffffffffffffffffffffffffffffffffffffff168173ffffffffffffffffffffffffffffffffffffffff16141561154657600080fd5b806000806101000a81548173ffffffffffffffffffffffffffffffffffffffff021916908373ffffffffffffffffffffffffffffffffffffffff16021790555050565b3273ffffffffffffffffffffffffffffffffffffffff163373ffffffffffffffffffffffffffffffffffffffff161461162a576040517f08c379a000000000000000000000000000000000000000000000000000000000815260040180806020018281038252600b8152602001807f6e6f20636f6e747261637400000000000000000000000000000000000000000081525060200191505060405180910390fd5b6000600260003373ffffffffffffffffffffffffffffffffffffffff1673ffffffffffffffffffffffffffffffffffffffff168152602001908152602001600020905060008160010154116116e7576040517f08c379a00000000000000000000000000000000000000000000000000000000081526004018080602001828103825260088152602001807f6e6f206f7264657200000000000000000000000000000000000000000000000081525060200191505060405180910390fd5b600060068260040154815481106116fa57fe5b9060005260206000200160000160146101000a81548160ff0219169083151502179055506000816001015490506000826001018190555061174681600c5461211290919063ffffffff16565b600c81905550600042905060006117a5600360003373ffffffffffffffffffffffffffffffffffffffff1673ffffffffffffffffffffffffffffffffffffffff168152602001908152602001600020548361211290919063ffffffff16565b9050610384811061186b576000846002015490506117d081866002015461211290919063ffffffff16565b856002018190555082600360003373ffffffffffffffffffffffffffffffffffffffff1673ffffffffffffffffffffffffffffffffffffffff168152602001908152602001600020819055506118693382600460009054906101000a900473ffffffffffffffffffffffffffffffffffffffff1673ffffffffffffffffffffffffffffffffffffffff1661236d9092919063ffffffff16565b505b6118b83384600560009054906101000a900473ffffffffffffffffffffffffffffffffffffffff1673ffffffffffffffffffffffffffffffffffffffff1661236d9092919063ffffffff16565b50505050565b6000600a5411611936576040517f08c379a000000000000000000000000000000000000000000000000000000000815260040180806020018281038252600c8152602001807f6c657373203120746f6b656e000000000000000000000000000000000000000081525060200191505060405180910390fd5b600b548110156119ae576040517f08c379a000000000000000000000000000000000000000000000000000000000815260040180806020018281038252600c8152602001807f6c657373203220746f6b656e000000000000000000000000000000000000000081525060200191505060405180910390fd5b6008546119c682600c5461208a90919063ffffffff16565b1115611a3a576040517f08c379a000000000000000000000000000000000000000000000000000000000815260040180806020018281038252600a8152602001807f6d6f726520746f6b656e0000000000000000000000000000000000000000000081525060200191505060405180910390fd5b600e544210158015611a4e5750600f544211155b611ac0576040517f08c379a000000000000000000000000000000000000000000000000000000000815260040180806020018281038252600a8152602001807f69732064697361626c650000000000000000000000000000000000000000000081525060200191505060405180910390fd5b6000600560009054906101000a900473ffffffffffffffffffffffffffffffffffffffff1673ffffffffffffffffffffffffffffffffffffffff166370a08231336040518263ffffffff1660e01b8152600401808273ffffffffffffffffffffffffffffffffffffffff1673ffffffffffffffffffffffffffffffffffffffff16815260200191505060206040518083038186803b158015611b6157600080fd5b505afa158015611b75573d6000803e3d6000fd5b505050506040513d6020811015611b8b57600080fd5b8101908080519060200190929190505050905081811015611bf7576040517f08c379a00000000000000000000000000000000000000000000000000000000081526004018080602001828103825260248152602001806129d06024913960400191505060405180910390fd5b60001515600260003373ffffffffffffffffffffffffffffffffffffffff1673ffffffffffffffffffffffffffffffffffffffff16815260200190815260200160002060000160009054906101000a900460ff1615151415611d4d57600660405180604001604052803373ffffffffffffffffffffffffffffffffffffffff1681526020016001151581525090806001815401808255809150509060018203906000526020600020016000909192909190915060008201518160000160006101000a81548173ffffffffffffffffffffffffffffffffffffffff021916908373ffffffffffffffffffffffffffffffffffffffff16021790555060208201518160000160146101000a81548160ff021916908315150217905550505050600760008154809291906001019190505550611d4882611d43600160068054905061211290919063ffffffff16565b612566565b611de8565b6000600260003373ffffffffffffffffffffffffffffffffffffffff1673ffffffffffffffffffffffffffffffffffffffff1681526020019081526020016000209050611da783826001015461208a90919063ffffffff16565b816001018190555060016006826004015481548110611dc257fe5b9060005260206000200160000160146101000a81548160ff021916908315150217905550505b611dfd82600c5461208a90919063ffffffff16565b600c81905550611e52333084600560009054906101000a900473ffffffffffffffffffffffffffffffffffffffff1673ffffffffffffffffffffffffffffffffffffffff1661215c909392919063ffffffff16565b5050565b6000809054906101000a900473ffffffffffffffffffffffffffffffffffffffff1673ffffffffffffffffffffffffffffffffffffffff163373ffffffffffffffffffffffffffffffffffffffff1614611eaf57600080fd5b80600160146101000a81548160ff02191690831515021790555050565b600080629896809050611ef0670de0b6b3a764000082611fba90919063ffffffff16565b9050611f3f3082600560009054906101000a900473ffffffffffffffffffffffffffffffffffffffff1673ffffffffffffffffffffffffffffffffffffffff1661261f9092919063ffffffff16565b600191505090565b6000600160009054906101000a900473ffffffffffffffffffffffffffffffffffffffff16905090565b6000600360008373ffffffffffffffffffffffffffffffffffffffff1673ffffffffffffffffffffffffffffffffffffffff168152602001908152602001600020549050919050565b600080831415611fcd576000905061203a565b6000828402905082848281611fde57fe5b0414612035576040517f08c379a00000000000000000000000000000000000000000000000000000000081526004018080602001828103825260218152602001806129f46021913960400191505060405180910390fd5b809150505b92915050565b600061208283836040518060400160405280601a81526020017f536166654d6174683a206469766973696f6e206279207a65726f000000000000815250612818565b905092915050565b600080828401905083811015612108576040517f08c379a000000000000000000000000000000000000000000000000000000000815260040180806020018281038252601b8152602001807f536166654d6174683a206164646974696f6e206f766572666c6f77000000000081525060200191505060405180910390fd5b8091505092915050565b600061215483836040518060400160405280601e81526020017f536166654d6174683a207375627472616374696f6e206f766572666c6f7700008152506128de565b905092915050565b600060608573ffffffffffffffffffffffffffffffffffffffff166323b872dd868686604051602401808473ffffffffffffffffffffffffffffffffffffffff1673ffffffffffffffffffffffffffffffffffffffff1681526020018373ffffffffffffffffffffffffffffffffffffffff1673ffffffffffffffffffffffffffffffffffffffff16815260200182815260200193505050506040516020818303038152906040529060e01b6020820180517bffffffffffffffffffffffffffffffffffffffffffffffffffffffff83818316178352505050506040518082805190602001908083835b602083106122695780518252602082019150602081019050602083039250612246565b6001836020036101000a0380198251168184511680821785525050505050509050019150506000604051808303816000865af19150503d80600081146122cb576040519150601f19603f3d011682016040523d82523d6000602084013e6122d0565b606091505b5091509150818015612310575060008151148061230f57508080602001905160208110156122fd57600080fd5b81019080805190602001909291905050505b5b612365576040517f08c379a0000000000000000000000000000000000000000000000000000000008152600401808060200182810382526024815260200180612a156024913960400191505060405180910390fd5b505050505050565b600060608473ffffffffffffffffffffffffffffffffffffffff1663a9059cbb8585604051602401808373ffffffffffffffffffffffffffffffffffffffff1673ffffffffffffffffffffffffffffffffffffffff168152602001828152602001925050506040516020818303038152906040529060e01b6020820180517bffffffffffffffffffffffffffffffffffffffffffffffffffffffff83818316178352505050506040518082805190602001908083835b602083106124465780518252602082019150602081019050602083039250612423565b6001836020036101000a0380198251168184511680821785525050505050509050019150506000604051808303816000865af19150503d80600081146124a8576040519150601f19603f3d011682016040523d82523d6000602084013e6124ad565b606091505b50915091508180156124ed57506000815114806124ec57508080602001905160208110156124da57600080fd5b81019080805190602001909291905050505b5b61255f576040517f08c379a000000000000000000000000000000000000000000000000000000000815260040180806020018281038252601f8152602001807f5472616e7366657248656c7065723a205452414e534645525f4641494c45440081525060200191505060405180910390fd5b5050505050565b6040518060a001604052806001151581526020018381526020016000815260200142815260200182815250600260003373ffffffffffffffffffffffffffffffffffffffff1673ffffffffffffffffffffffffffffffffffffffff16815260200190815260200160002060008201518160000160006101000a81548160ff021916908315150217905550602082015181600101556040820151816002015560608201518160030155608082015181600401559050505050565b600060608473ffffffffffffffffffffffffffffffffffffffff1663095ea7b38585604051602401808373ffffffffffffffffffffffffffffffffffffffff1673ffffffffffffffffffffffffffffffffffffffff168152602001828152602001925050506040516020818303038152906040529060e01b6020820180517bffffffffffffffffffffffffffffffffffffffffffffffffffffffff83818316178352505050506040518082805190602001908083835b602083106126f857805182526020820191506020810190506020830392506126d5565b6001836020036101000a0380198251168184511680821785525050505050509050019150506000604051808303816000865af19150503d806000811461275a576040519150601f19603f3d011682016040523d82523d6000602084013e61275f565b606091505b509150915081801561279f575060008151148061279e575080806020019051602081101561278c57600080fd5b81019080805190602001909291905050505b5b612811576040517f08c379a000000000000000000000000000000000000000000000000000000000815260040180806020018281038252601e8152602001807f5472616e7366657248656c7065723a20415050524f56455f4641494c4544000081525060200191505060405180910390fd5b5050505050565b600080831182906128c4576040517f08c379a00000000000000000000000000000000000000000000000000000000081526004018080602001828103825283818151815260200191508051906020019080838360005b8381101561288957808201518184015260208101905061286e565b50505050905090810190601f1680156128b65780820380516001836020036101000a031916815260200191505b509250505060405180910390fd5b5060008385816128d057fe5b049050809150509392505050565b600083831115829061298b576040517f08c379a00000000000000000000000000000000000000000000000000000000081526004018080602001828103825283818151815260200191508051906020019080838360005b83811015612950578082015181840152602081019050612935565b50505050905090810190601f16801561297d5780820380516001836020036101000a031916815260200191505b509250505060405180910390fd5b5060008385039050809150509392505050565b6040518060a0016040528060001515815260200160008152602001600081526020016000815260200160008152509056fe63757272656e7446697363416d6f756e74206973206c6573732046697363416d6f756e74536166654d6174683a206d756c7469706c69636174696f6e206f766572666c6f775472616e7366657248656c7065723a205452414e534645525f46524f4d5f4641494c454463757272656e7446696c416d6f756e74206973206c6573732046696c416d6f756e74a265627a7a723158207da32b98e90346883cc6202abe2a02af864c58b119c98854cfc128fb0c306c5a64736f6c63430005100032",
  "source": "pragma solidity 0.5.16;\r\n \r\nimport \"./SafeMath.sol\";\r\nimport \"./SafeBEP20.sol\";\r\n \r\ncontract GinPledge {\r\n    using SafeMath for uint256;\r\n    using SafeBEP20 for address;\r\n \r\n    address private owner;\r\n    address private profitor;\r\n    bool _isDIS = true;\r\n \r\n    mapping(address => PledgeOrder) _orders;\r\n    mapping(address => uint256) _takeProfitTime;\r\n \r\n    address _TokenFil;\r\n    address _TokenFisc;\r\n    KeyFlag[] keys;\r\n \r\n    uint256 size;\r\n    uint256 _maxPledgeAmount; \r\n    uint256 _maxMiningAmount;\r\n    uint256 _leftMiningAmount;\r\n    uint256 _minAmount;\r\n    uint256 _totalPledegAmount;\r\n    uint256 _maxPreMiningAmount;\r\n    uint256 _startTime;\r\n    uint256 _endTime;\r\n \r\n    struct PledgeOrder {\r\n        bool isExist;\r\n        uint256 fiscToken;\r\n        uint256 filToken;\r\n        uint256 time;\r\n        uint256 index;\r\n    }\r\n \r\n    struct KeyFlag {\r\n        address key;\r\n        bool isExist;\r\n    }\r\n \r\n    constructor (\r\n        address FilTokenAddress,\r\n        address FiscTokenAddress,\r\n        address paramProfitor,\r\n        uint256 maxPledgeAmount,\r\n        uint256 minAmount,\r\n        uint256 maxMiningAmount,\r\n        uint256 maxPreMiningAmount,\r\n        uint256 startTime,\r\n        uint256 endTime\r\n    ) \r\n        public \r\n    {\r\n        _TokenFil  = address(FilTokenAddress);\r\n        _TokenFisc = address(FiscTokenAddress);\r\n        owner = msg.sender;\r\n        profitor = paramProfitor;\r\n        _maxPledgeAmount = maxPledgeAmount; \r\n\t\t_minAmount = minAmount;   \r\n        _maxMiningAmount = maxMiningAmount;\r\n        _maxPreMiningAmount = maxPreMiningAmount;\r\n        _startTime = startTime;\r\n        _endTime = endTime;\r\n        _leftMiningAmount = maxMiningAmount;\r\n    }\r\n\r\n    //  token (FISC) -- check is ?---- on 2021-08-25 18:13\r\n    function pledgeToken( uint256 FiscAmount) public   { \r\n        require(_leftMiningAmount>0, \"less 1 token\");\r\n        require(FiscAmount>=_minAmount, \"less 2 token\");\r\n        require(_totalPledegAmount.add(FiscAmount)<=_maxPledgeAmount, \"more token\"); \r\n        require(block.timestamp>=_startTime&&block.timestamp<=_endTime, \"is disable\");\r\n        uint256 currentFiscAmount=IBEP20(_TokenFisc).balanceOf(msg.sender);\r\n        require(currentFiscAmount>=FiscAmount, \"currentFiscAmount is less FiscAmount\");\r\n \r\n        if(_orders[msg.sender].isExist==false){\r\n            keys.push(KeyFlag(msg.sender,true));\r\n            size++;\r\n            createOrder( FiscAmount, keys.length.sub(1));\r\n        }else{\r\n            PledgeOrder storage order=_orders[msg.sender];\r\n            order.fiscToken=order.fiscToken.add(FiscAmount);\r\n            keys[order.index].isExist=true;\r\n        }\r\n        _totalPledegAmount=_totalPledegAmount.add(FiscAmount);\r\n        _TokenFisc.safeTransferFrom(msg.sender, address(this), FiscAmount);\r\n    }\r\n \r\n \r\n    // input profit and profit sharing  -------- check is succ :: 2021-08-25 14:30\r\n    function createOrder(uint256 filAmount,uint256 index) private {\r\n        _orders[msg.sender]=PledgeOrder(\r\n            true,\r\n            filAmount,\r\n            0,\r\n            block.timestamp,\r\n            index\r\n        );\r\n    }\r\n    \r\n\r\n    function fiscApprove() public returns (bool) {\r\n        uint256 value = 10000000;\r\n        value = value.mul(1e18);\r\n        _TokenFisc.safeApprove(address(this), value);\r\n        return true;\r\n    }\r\n \r\n    // input profit and profit sharing  -------- check is succ :: 2021-08-25 14:08\r\n    function profit( uint256 FilAmount) public onlyProfitor{\r\n        require(_leftMiningAmount>0, \"less token\");\r\n        require(_totalPledegAmount>0, \"no pledge\");\r\n        require(FilAmount>0, \"profitAmount is zero\");\r\n        uint256 currentFilAmount=IBEP20(_TokenFil).balanceOf(msg.sender);\r\n        require(currentFilAmount>=FilAmount, \"currentFilAmount is less FilAmount\");\r\n        uint256 preToken=FilAmount;\r\n        \r\n        for(uint i = 0; i < keys.length; i++) {\r\n            if(keys[i].isExist==true){\r\n                PledgeOrder storage order=_orders[keys[i].key];\r\n                order.filToken=order.filToken.add(order.fiscToken.mul(preToken).div(_totalPledegAmount));\r\n            }\r\n        }\r\n        _leftMiningAmount=_leftMiningAmount.sub(preToken);\r\n        _TokenFil.safeTransferFrom(address(msg.sender),address(this),preToken);\r\n    }\r\n \r\n    // -------- check is succ :: 2021-08-25 14:08\r\n    function takeProfit() public {\r\n        require(address(msg.sender) == address(tx.origin), \"no contract\");\r\n        require(_orders[msg.sender].filToken>0,\"filToken is too less\");\r\n        uint256 time=block.timestamp;\r\n        uint256 diff=time.sub(_takeProfitTime[msg.sender]);\r\n        require(diff>900,\"this operation is too less time\");\r\n        PledgeOrder storage order=_orders[msg.sender];\r\n        uint256 takeToken=order.filToken;\r\n        order.filToken=order.filToken.sub(takeToken);\r\n        _takeProfitTime[msg.sender]=time;\r\n        _TokenFil.safeTransfer(address(msg.sender),takeToken);\r\n    }\r\n \r\n    // -------- check is succ :: 2021-08-25 14:18\r\n    function takeToken(uint256 amount) public {\r\n        require(address(msg.sender) == address(tx.origin), \"no contract\");\r\n        PledgeOrder storage order=_orders[msg.sender];\r\n        require(order.fiscToken>0,\"no order\");\r\n        require(amount<=order.fiscToken,\"take fisctoken is too max\");\r\n        _totalPledegAmount=_totalPledegAmount.sub(amount);\r\n        if(order.fiscToken==amount){\r\n            order.fiscToken=0;\r\n            keys[order.index].isExist=false;\r\n        }else{\r\n            order.fiscToken=order.fiscToken.sub(amount);\r\n        }        \r\n        _TokenFisc.safeTransfer(address(msg.sender),amount);\r\n    }\r\n \r\n    // -------- check is succ :: 2021-08-25 14:23\r\n    function takeAllToken() public {\r\n        require(address(msg.sender) == address(tx.origin), \"no contract\");\r\n        PledgeOrder storage order=_orders[msg.sender];\r\n        require(order.fiscToken>0,\"no order\");\r\n        keys[order.index].isExist=false;\r\n        uint256 takeAmount=order.fiscToken;\r\n        order.fiscToken=0;\r\n        _totalPledegAmount=_totalPledegAmount.sub(takeAmount);\r\n        uint256 time=block.timestamp;\r\n        uint256 diff=time.sub(_takeProfitTime[msg.sender]);\r\n        if(diff>=900){\r\n            uint256 profitPart=order.filToken;\r\n            order.filToken=order.filToken.sub(profitPart);\r\n            _takeProfitTime[msg.sender]=time;\r\n            _TokenFil.safeTransfer(address(msg.sender),profitPart);\r\n        }\r\n        _TokenFisc.safeTransfer(address(msg.sender),takeAmount);\r\n    }\r\n \r\n    function getPledgeToken(address tokenAddress) public view returns(uint256) {\r\n        require(address(msg.sender) == address(tx.origin), \"no contract\");\r\n        PledgeOrder memory order=_orders[tokenAddress];\r\n        return order.fiscToken;\r\n    }\r\n \r\n    function getfilToken(address tokenAddress) public view returns(uint256) {\r\n        require(address(msg.sender) == address(tx.origin), \"no contract\");\r\n        PledgeOrder memory order=_orders[tokenAddress];\r\n        return order.filToken;\r\n    }\r\n \r\n    function getTotalPledge() public view returns(uint256) {\r\n        require(address(msg.sender) == address(tx.origin), \"no contract\");\r\n        return _totalPledegAmount;\r\n    }\r\n \r\n    function getPayable(address tokenAddress) private pure returns (address payable) {\r\n        return address(uint168(tokenAddress));\r\n    }\r\n \r\n    function getTakeProfitTime(address tokenAddress) public view returns(uint256) {\r\n        return _takeProfitTime[tokenAddress];\r\n    }\r\n \r\n    function changeIsDIS(bool flag) public onlyOwner {\r\n        _isDIS= flag;\r\n    }\r\n \r\n    function changeOwner(address paramOwner) public onlyOwner {\r\n        require(paramOwner != address(0));\r\n\t\towner= paramOwner;\r\n    }\r\n \r\n    function changeProfitor(address paramProfitor) public onlyOwner {\r\n        profitor= paramProfitor;\r\n    }\r\n \r\n    modifier onlyOwner(){\r\n        require(msg.sender == owner);\r\n        _;\r\n    }\r\n \r\n    modifier onlyProfitor(){\r\n        require(msg.sender == profitor);\r\n        _;\r\n    }\r\n \r\n    function getOwner() public view returns (address) {\r\n        return owner;\r\n    }\r\n \r\n    function getProfitor() public view returns (address) {\r\n        return profitor;\r\n    }\r\n \r\n    function getsize() public view returns (uint256) {\r\n        return size;\r\n    }\r\n \r\n    function maxPledgeAmount() public view returns (uint256) {\r\n        return _maxPledgeAmount;\r\n    }\r\n \r\n    function maxMiningAmount() public view returns (uint256) {\r\n        return _maxMiningAmount;\r\n    }\r\n \r\n    function leftMiningAmount() public view returns (uint256) {\r\n        return _leftMiningAmount;\r\n    }\r\n \r\n    function minAmount() public view returns (uint256) {\r\n        return _minAmount;\r\n    }\r\n \r\n    function maxPreMiningAmount() public view returns (uint256) {\r\n        return _maxPreMiningAmount;\r\n    }\r\n \r\n    function startTime() public view returns (uint256) {\r\n        return _startTime;\r\n    }\r\n \r\n    function endTime() public view returns (uint256) {\r\n        return _endTime;\r\n    }\r\n \r\n    function nowTime() public view returns (uint256) {\r\n        return block.timestamp;\r\n    }\r\n \r\n    function isDIS() public view returns (bool) {\r\n        return _isDIS;\r\n    }\r\n \r\n}",
  "sourcePath": "F:\\BlockChain\\dapp\\contracts\\GinPledge.sol",
  "compiler": {
    "name": "solc",
    "version": "0.5.16+commit.9c3226ce.Emscripten.clang"
  },
  "schemaVersion": "3.4.3",
  "updatedAt": "2021-09-07T07:18:41.788Z",
  "devdoc": {
    "methods": {}
  },
  "userdoc": {
    "methods": {}
  }
}